{
  "_format": "hh3-artifact-1",
  "contractName": "TokenSale",
  "sourceName": "contracts/TokenSale.sol",
  "abi": [
    {
      "inputs": [
        {
          "internalType": "address",
          "name": "_token",
          "type": "address"
        }
      ],
      "stateMutability": "nonpayable",
      "type": "constructor"
    },
    {
      "inputs": [],
      "name": "purchase",
      "outputs": [],
      "stateMutability": "payable",
      "type": "function"
    }
  ],
  "bytecode": "0x6080604052670de0b6b3a76400005f553480156019575f5ffd5b506040516103eb3803806103eb833981016040819052603691605a565b600180546001600160a01b0319166001600160a01b03929092169190911790556085565b5f602082840312156069575f5ffd5b81516001600160a01b0381168114607e575f5ffd5b9392505050565b610359806100925f395ff3fe60806040526004361061001d575f3560e01c806364edfbf014610021575b5f5ffd5b61002961002b565b005b5f543410156100785760405162461bcd60e51b8152602060048201526015602482015274139bdd08195b9bdd59da081b5bdb995e481cd95b9d605a1b604482015260640160405180910390fd5b5f805461008590346101c8565b90505f5f548261009591906101e7565b61009f9034610204565b6001546040805163313ce56760e01b815290519293506001600160a01b039091169163a9059cbb913391849163313ce5679160048083019260209291908290030181865afa1580156100f3573d5f5f3e3d5ffd5b505050506040513d601f19601f820116820180604052508101906101179190610217565b61012290600a610311565b61012c90866101e7565b6040516001600160e01b031960e085901b1681526001600160a01b03909216600483015260248201526044015f604051808303815f87803b15801561016f575f5ffd5b505af1158015610181573d5f5f3e3d5ffd5b505060405133925083156108fc02915083905f818181858888f193505050501580156101af573d5f5f3e3d5ffd5b505050565b634e487b7160e01b5f52601160045260245ffd5b5f826101e257634e487b7160e01b5f52601260045260245ffd5b500490565b80820281158282048414176101fe576101fe6101b4565b92915050565b818103818111156101fe576101fe6101b4565b5f60208284031215610227575f5ffd5b5051919050565b6001815b60018411156102695780850481111561024d5761024d6101b4565b600184161561025b57908102905b60019390931c928002610232565b935093915050565b5f8261027f575060016101fe565b8161028b57505f6101fe565b81600181146102a157600281146102ab576102c7565b60019150506101fe565b60ff8411156102bc576102bc6101b4565b50506001821b6101fe565b5060208310610133831016604e8410600b84101617156102ea575081810a6101fe565b6102f65f19848461022e565b805f1904821115610309576103096101b4565b029392505050565b5f61031c8383610271565b939250505056fea2646970667358221220ebdb57a610e42f8e06f16139d3dcd63c8abce402a9b42dff7fa4426681febaba64736f6c634300081c0033",
  "linkReferences": {},
  "deployedLinkReferences": {},
  "immutableReferences": {},
  "inputSourceName": "project/contracts/TokenSale.sol",
  "buildInfoId": "solc-0_8_28-591042a09fab9b72a8fcd94d6957d1d8894292d8"
}