{
  "_format": "hh3-artifact-1",
  "contractName": "TokenSale",
  "sourceName": "contracts/TokenSale.sol",
  "abi": [
    {
      "inputs": [
        {
          "internalType": "address",
          "name": "_token",
          "type": "address"
        }
      ],
      "stateMutability": "nonpayable",
      "type": "constructor"
    },
    {
      "inputs": [],
      "name": "purchase",
      "outputs": [],
      "stateMutability": "payable",
      "type": "function"
    },
    {
      "inputs": [],
      "name": "token",
      "outputs": [
        {
          "internalType": "contract IERC20",
          "name": "",
          "type": "address"
        }
      ],
      "stateMutability": "view",
      "type": "function"
    },
    {
      "inputs": [],
      "name": "tokenPriceInWei",
      "outputs": [
        {
          "internalType": "uint256",
          "name": "",
          "type": "uint256"
        }
      ],
      "stateMutability": "view",
      "type": "function"
    }
  ],
  "bytecode": "0x6080604052670de0b6b3a76400005f553480156019575f5ffd5b506040516105c03803806105c0833981016040819052603691605a565b600180546001600160a01b0319166001600160a01b03929092169190911790556085565b5f602082840312156069575f5ffd5b81516001600160a01b0381168114607e575f5ffd5b9392505050565b61052e806100925f395ff3fe608060405260043610610033575f3560e01c80632f8de8101461003757806364edfbf01461005e578063fc0c546a14610068575b5f5ffd5b348015610042575f5ffd5b5061004b5f5481565b6040519081526020015b60405180910390f35b61006661009f565b005b348015610073575f5ffd5b50600154610087906001600160a01b031681565b6040516001600160a01b039091168152602001610055565b5f543410156100eb5760405162461bcd60e51b8152602060048201526013602482015272139bdd08195b9bdd59da08115512081cd95b9d606a1b60448201526064015b60405180910390fd5b5f80546100f8903461035f565b90505f60015f9054906101000a90046001600160a01b03166001600160a01b031663313ce5676040518163ffffffff1660e01b8152600401602060405180830381865afa15801561014b573d5f5f3e3d5ffd5b505050506040513d601f19601f8201168201806040525081019061016f919061037e565b61017a90600a61048a565b6101849083610498565b6001546040516370a0823160e01b815230600482015291925082916001600160a01b03909116906370a0823190602401602060405180830381865afa1580156101cf573d5f5f3e3d5ffd5b505050506040513d601f19601f820116820180604052508101906101f391906104af565b10156102415760405162461bcd60e51b815260206004820152601760248201527f546f6b656e53616c65206f7574206f6620746f6b656e7300000000000000000060448201526064016100e2565b60015460405163a9059cbb60e01b8152336004820152602481018390525f916001600160a01b03169063a9059cbb906044016020604051808303815f875af115801561028f573d5f5f3e3d5ffd5b505050506040513d601f19601f820116820180604052508101906102b391906104c6565b9050806102fa5760405162461bcd60e51b8152602060048201526015602482015274151bdad95b881d1c985b9cd9995c8819985a5b1959605a1b60448201526064016100e2565b5f80546103079085610498565b61031190346104e5565b9050801561034557604051339082156108fc029083905f818181858888f19350505050158015610343573d5f5f3e3d5ffd5b505b50505050565b634e487b7160e01b5f52601160045260245ffd5b5f8261037957634e487b7160e01b5f52601260045260245ffd5b500490565b5f6020828403121561038e575f5ffd5b815160ff8116811461039e575f5ffd5b9392505050565b6001815b60018411156103e0578085048111156103c4576103c461034b565b60018416156103d257908102905b60019390931c9280026103a9565b935093915050565b5f826103f657506001610484565b8161040257505f610484565b816001811461041857600281146104225761043e565b6001915050610484565b60ff8411156104335761043361034b565b50506001821b610484565b5060208310610133831016604e8410600b8410161715610461575081810a610484565b61046d5f1984846103a5565b805f19048211156104805761048061034b565b0290505b92915050565b5f61039e60ff8416836103e8565b80820281158282048414176104845761048461034b565b5f602082840312156104bf575f5ffd5b5051919050565b5f602082840312156104d6575f5ffd5b8151801515811461039e575f5ffd5b818103818111156104845761048461034b56fea26469706673582212200ff647bfdbb428d33c7e4d0c3d3f3e3f69ced352843f537ac2df4d679503f12264736f6c634300081c0033",
  "linkReferences": {},
  "deployedLinkReferences": {},
  "immutableReferences": {},
  "inputSourceName": "project/contracts/TokenSale.sol",
  "buildInfoId": "solc-0_8_28-549e04f16d9d79b204f2ae6fba434cb7c40a6bdf"
}